{
  "contracts/svg/pureSVG.sol": {
    "PureSVG": {
      "abi": [
        {
          "inputs": [
            {
              "internalType": "bytes32",
              "name": "_bytes32",
              "type": "bytes32"
            }
          ],
          "name": "bytes32ToString",
          "outputs": [
            {
              "internalType": "string",
              "name": "",
              "type": "string"
            }
          ],
          "stateMutability": "pure",
          "type": "function"
        },
        {
          "inputs": [
            {
              "internalType": "string",
              "name": "imageURI",
              "type": "string"
            }
          ],
          "name": "formatTokenURI",
          "outputs": [
            {
              "internalType": "string",
              "name": "",
              "type": "string"
            }
          ],
          "stateMutability": "pure",
          "type": "function"
        },
        {
          "inputs": [],
          "name": "svgToImageURI",
          "outputs": [
            {
              "internalType": "string",
              "name": "",
              "type": "string"
            }
          ],
          "stateMutability": "pure",
          "type": "function"
        }
      ],
      "devdoc": {
        "kind": "dev",
        "methods": {},
        "version": 1
      },
      "evm": {
        "bytecode": {
          "linkReferences": {},
          "object": "608060405234801561001057600080fd5b50610d8b806100206000396000f3fe608060405234801561001057600080fd5b50600436106100415760003560e01c806371aee193146100465780639201de551461006f578063946aa63514610082575b600080fd5b6100596100543660046106ec565b61008a565b6040516100669190610b57565b60405180910390f35b61005961007d3660046106d3565b6100da565b610059610259565b60606100b4826040516020016100a091906108a2565b6040516020818303038152906040526102d8565b6040516020016100c4919061085d565b6040516020818303038152906040529050919050565b606060005b60208160ff1610801561012b5750828160ff166020811061010257610102610cb7565b1a60f81b7fff000000000000000000000000000000000000000000000000000000000000001615155b15610142578061013a81610c68565b9150506100df565b60008160ff1667ffffffffffffffff81111561016057610160610ce6565b6040519080825280601f01601f19166020018201604052801561018a576020820181803683370190505b509050600091505b60208260ff161080156101de5750838260ff16602081106101b5576101b5610cb7565b1a60f81b7fff000000000000000000000000000000000000000000000000000000000000001615155b1561025257838260ff16602081106101f8576101f8610cb7565b1a60f81b818360ff168151811061021157610211610cb7565b60200101907effffffffffffffffffffffffffffffffffffffffffffffffffffffffffffff1916908160001a9053508161024a81610c68565b925050610192565b9392505050565b60408051808201909152601a81527f646174613a696d6167652f7376672b786d6c3b6261736536342c000000000000602082015260609060006102ad61029d6104b1565b6040516020016100a091906107bb565b905081816040516020016102c29291906107d7565b6040516020818303038152906040529250505090565b60608151600014156102f857505060408051602081019091526000815290565b6000604051806060016040528060408152602001610d1660409139905060006003845160026103279190610ba8565b6103319190610bc0565b61033c906004610bfb565b9050600061034b826020610ba8565b67ffffffffffffffff81111561036357610363610ce6565b6040519080825280601f01601f19166020018201604052801561038d576020820181803683370190505b509050818152600183018586518101602084015b818310156103f9576003830192508251603f8160121c168501518253600182019150603f81600c1c168501518253600182019150603f8160061c168501518253600182019150603f81168501518253506001016103a1565b600389510660018114610413576002811461045d576104a3565b7f3d3d0000000000000000000000000000000000000000000000000000000000007ffffffffffffffffffffffffffffffffffffffffffffffffffffffffffffffffe8301526104a3565b7f3d000000000000000000000000000000000000000000000000000000000000007fffffffffffffffffffffffffffffffffffffffffffffffffffffffffffffffff8301525b509398975050505050505050565b60606104bb6104e8565b6104c36106c2565b6040516020016104d4929190610806565b604051602081830303815290604052905090565b606060006040518060400160405280601f81526020017f68747470733a2f2f692e696d6775722e636f6d2f594553484336322e706e670081525090506040516020016106ad907f3c7376672077696474683d2232383022206865696768743d223430302220766981527f6577426f783d223020302032383020343030222066696c6c3d226e6f6e65222060208201527f786d6c6e733d22687474703a2f2f7777772e77332e6f72672f323030302f737660408201527f67223e000000000000000000000000000000000000000000000000000000000060608201527f3c646566733e000000000000000000000000000000000000000000000000000060638201527f3c636c6970506174682069643d22636c6970305f325f34223e0000000000000060698201527f3c726563742077696474683d2232383022206865696768743d2234303022206660828201527f696c6c3d227768697465222f3e0000000000000000000000000000000000000060a28201527f3c2f636c6970506174683e00000000000000000000000000000000000000000060af8201527f3c2f646566733e0000000000000000000000000000000000000000000000000060ba82015260c10190565b60405160208183030381529060405291505090565b60606040516020016104d4906109a6565b6000602082840312156106e557600080fd5b5035919050565b6000602082840312156106fe57600080fd5b813567ffffffffffffffff8082111561071657600080fd5b818401915084601f83011261072a57600080fd5b81358181111561073c5761073c610ce6565b604051601f82017fffffffffffffffffffffffffffffffffffffffffffffffffffffffffffffffe0908116603f0116810190838211818310171561078257610782610ce6565b8160405282815287602084870101111561079b57600080fd5b826020860160208301376000928101602001929092525095945050505050565b600082516107cd818460208701610c38565b9190910192915050565b600083516107e9818460208801610c38565b8351908301906107fd818360208801610c38565b01949350505050565b60008351610818818460208801610c38565b83519083019061082c818360208801610c38565b7f3c2f7376673e00000000000000000000000000000000000000000000000000009101908152600601949350505050565b7f646174613a6170706c69636174696f6e2f6a736f6e3b6261736536342c00000081526000825161089581601d850160208701610c38565b91909101601d0192915050565b7f7b226e616d65223a22476f6f644d6f726e696e67222c0000000000000000000081527f20226465736372697074696f6e223a2022412067656e6572617469766520617260168201527f7420746f2073686f7720476f6f64204d6f726e696e6728474d29222c0000000060368201527f2261747472696275746573223a22222c0000000000000000000000000000000060528201527f22696d616765223a22000000000000000000000000000000000000000000000060628201526000825161097281606b850160208701610c38565b7f227d000000000000000000000000000000000000000000000000000000000000606b939091019283015250606d01919050565b7f3c6720636c69702d706174683d2275726c2823636c6970305f325f3429223e0081527f3c726563742077696474683d2232383022206865696768743d22343030222066601f8201527f696c6c3d2223464632463246222f3e0000000000000000000000000000000000603f8201526000610a6d604e83017f3c726563742077696474683d2232383022206865696768743d2234303022206681527f696c6c3d227768697465222f3e000000000000000000000000000000000000006020820152602d0190565b7f3c636972636c652063783d22313430222063793d223131312220723d2235302281527f2066696c6c3d2223444531303130222f3e00000000000000000000000000000060208201527f3c656c6c697073652063783d22313332222063793d223339392e35222072783d60318201527f22323431222072793d223135322e35222066696c6c3d2223343243323736222f60518201527f3e0000000000000000000000000000000000000000000000000000000000000060718201527f3c2f673e00000000000000000000000000000000000000000000000000000000607282015260760192915050565b6020815260008251806020840152610b76816040850160208701610c38565b601f017fffffffffffffffffffffffffffffffffffffffffffffffffffffffffffffffe0169190910160400192915050565b60008219821115610bbb57610bbb610c88565b500190565b600082610bf6577f4e487b7100000000000000000000000000000000000000000000000000000000600052601260045260246000fd5b500490565b6000817fffffffffffffffffffffffffffffffffffffffffffffffffffffffffffffffff0483118215151615610c3357610c33610c88565b500290565b60005b83811015610c53578181015183820152602001610c3b565b83811115610c62576000848401525b50505050565b600060ff821660ff811415610c7f57610c7f610c88565b60010192915050565b7f4e487b7100000000000000000000000000000000000000000000000000000000600052601160045260246000fd5b7f4e487b7100000000000000000000000000000000000000000000000000000000600052603260045260246000fd5b7f4e487b7100000000000000000000000000000000000000000000000000000000600052604160045260246000fdfe4142434445464748494a4b4c4d4e4f505152535455565758595a6162636465666768696a6b6c6d6e6f707172737475767778797a303132333435363738392b2fa2646970667358221220d25a15a6a3c836411ca74d650213c4eb92a8d09f092c29ef09082509f220a4db64736f6c63430008070033",
          "opcodes": "PUSH1 0x80 PUSH1 0x40 MSTORE CALLVALUE DUP1 ISZERO PUSH2 0x10 JUMPI PUSH1 0x0 DUP1 REVERT JUMPDEST POP PUSH2 0xD8B DUP1 PUSH2 0x20 PUSH1 0x0 CODECOPY PUSH1 0x0 RETURN INVALID PUSH1 0x80 PUSH1 0x40 MSTORE CALLVALUE DUP1 ISZERO PUSH2 0x10 JUMPI PUSH1 0x0 DUP1 REVERT JUMPDEST POP PUSH1 0x4 CALLDATASIZE LT PUSH2 0x41 JUMPI PUSH1 0x0 CALLDATALOAD PUSH1 0xE0 SHR DUP1 PUSH4 0x71AEE193 EQ PUSH2 0x46 JUMPI DUP1 PUSH4 0x9201DE55 EQ PUSH2 0x6F JUMPI DUP1 PUSH4 0x946AA635 EQ PUSH2 0x82 JUMPI JUMPDEST PUSH1 0x0 DUP1 REVERT JUMPDEST PUSH2 0x59 PUSH2 0x54 CALLDATASIZE PUSH1 0x4 PUSH2 0x6EC JUMP JUMPDEST PUSH2 0x8A JUMP JUMPDEST PUSH1 0x40 MLOAD PUSH2 0x66 SWAP2 SWAP1 PUSH2 0xB57 JUMP JUMPDEST PUSH1 0x40 MLOAD DUP1 SWAP2 SUB SWAP1 RETURN JUMPDEST PUSH2 0x59 PUSH2 0x7D CALLDATASIZE PUSH1 0x4 PUSH2 0x6D3 JUMP JUMPDEST PUSH2 0xDA JUMP JUMPDEST PUSH2 0x59 PUSH2 0x259 JUMP JUMPDEST PUSH1 0x60 PUSH2 0xB4 DUP3 PUSH1 0x40 MLOAD PUSH1 0x20 ADD PUSH2 0xA0 SWAP2 SWAP1 PUSH2 0x8A2 JUMP JUMPDEST PUSH1 0x40 MLOAD PUSH1 0x20 DUP2 DUP4 SUB SUB DUP2 MSTORE SWAP1 PUSH1 0x40 MSTORE PUSH2 0x2D8 JUMP JUMPDEST PUSH1 0x40 MLOAD PUSH1 0x20 ADD PUSH2 0xC4 SWAP2 SWAP1 PUSH2 0x85D JUMP JUMPDEST PUSH1 0x40 MLOAD PUSH1 0x20 DUP2 DUP4 SUB SUB DUP2 MSTORE SWAP1 PUSH1 0x40 MSTORE SWAP1 POP SWAP2 SWAP1 POP JUMP JUMPDEST PUSH1 0x60 PUSH1 0x0 JUMPDEST PUSH1 0x20 DUP2 PUSH1 0xFF AND LT DUP1 ISZERO PUSH2 0x12B JUMPI POP DUP3 DUP2 PUSH1 0xFF AND PUSH1 0x20 DUP2 LT PUSH2 0x102 JUMPI PUSH2 0x102 PUSH2 0xCB7 JUMP JUMPDEST BYTE PUSH1 0xF8 SHL PUSH32 0xFF00000000000000000000000000000000000000000000000000000000000000 AND ISZERO ISZERO JUMPDEST ISZERO PUSH2 0x142 JUMPI DUP1 PUSH2 0x13A DUP2 PUSH2 0xC68 JUMP JUMPDEST SWAP2 POP POP PUSH2 0xDF JUMP JUMPDEST PUSH1 0x0 DUP2 PUSH1 0xFF AND PUSH8 0xFFFFFFFFFFFFFFFF DUP2 GT ISZERO PUSH2 0x160 JUMPI PUSH2 0x160 PUSH2 0xCE6 JUMP JUMPDEST PUSH1 0x40 MLOAD SWAP1 DUP1 DUP3 MSTORE DUP1 PUSH1 0x1F ADD PUSH1 0x1F NOT AND PUSH1 0x20 ADD DUP3 ADD PUSH1 0x40 MSTORE DUP1 ISZERO PUSH2 0x18A JUMPI PUSH1 0x20 DUP3 ADD DUP2 DUP1 CALLDATASIZE DUP4 CALLDATACOPY ADD SWAP1 POP JUMPDEST POP SWAP1 POP PUSH1 0x0 SWAP2 POP JUMPDEST PUSH1 0x20 DUP3 PUSH1 0xFF AND LT DUP1 ISZERO PUSH2 0x1DE JUMPI POP DUP4 DUP3 PUSH1 0xFF AND PUSH1 0x20 DUP2 LT PUSH2 0x1B5 JUMPI PUSH2 0x1B5 PUSH2 0xCB7 JUMP JUMPDEST BYTE PUSH1 0xF8 SHL PUSH32 0xFF00000000000000000000000000000000000000000000000000000000000000 AND ISZERO ISZERO JUMPDEST ISZERO PUSH2 0x252 JUMPI DUP4 DUP3 PUSH1 0xFF AND PUSH1 0x20 DUP2 LT PUSH2 0x1F8 JUMPI PUSH2 0x1F8 PUSH2 0xCB7 JUMP JUMPDEST BYTE PUSH1 0xF8 SHL DUP2 DUP4 PUSH1 0xFF AND DUP2 MLOAD DUP2 LT PUSH2 0x211 JUMPI PUSH2 0x211 PUSH2 0xCB7 JUMP JUMPDEST PUSH1 0x20 ADD ADD SWAP1 PUSH31 0xFFFFFFFFFFFFFFFFFFFFFFFFFFFFFFFFFFFFFFFFFFFFFFFFFFFFFFFFFFFFFF NOT AND SWAP1 DUP2 PUSH1 0x0 BYTE SWAP1 MSTORE8 POP DUP2 PUSH2 0x24A DUP2 PUSH2 0xC68 JUMP JUMPDEST SWAP3 POP POP PUSH2 0x192 JUMP JUMPDEST SWAP4 SWAP3 POP POP POP JUMP JUMPDEST PUSH1 0x40 DUP1 MLOAD DUP1 DUP3 ADD SWAP1 SWAP2 MSTORE PUSH1 0x1A DUP2 MSTORE PUSH32 0x646174613A696D6167652F7376672B786D6C3B6261736536342C000000000000 PUSH1 0x20 DUP3 ADD MSTORE PUSH1 0x60 SWAP1 PUSH1 0x0 PUSH2 0x2AD PUSH2 0x29D PUSH2 0x4B1 JUMP JUMPDEST PUSH1 0x40 MLOAD PUSH1 0x20 ADD PUSH2 0xA0 SWAP2 SWAP1 PUSH2 0x7BB JUMP JUMPDEST SWAP1 POP DUP2 DUP2 PUSH1 0x40 MLOAD PUSH1 0x20 ADD PUSH2 0x2C2 SWAP3 SWAP2 SWAP1 PUSH2 0x7D7 JUMP JUMPDEST PUSH1 0x40 MLOAD PUSH1 0x20 DUP2 DUP4 SUB SUB DUP2 MSTORE SWAP1 PUSH1 0x40 MSTORE SWAP3 POP POP POP SWAP1 JUMP JUMPDEST PUSH1 0x60 DUP2 MLOAD PUSH1 0x0 EQ ISZERO PUSH2 0x2F8 JUMPI POP POP PUSH1 0x40 DUP1 MLOAD PUSH1 0x20 DUP2 ADD SWAP1 SWAP2 MSTORE PUSH1 0x0 DUP2 MSTORE SWAP1 JUMP JUMPDEST PUSH1 0x0 PUSH1 0x40 MLOAD DUP1 PUSH1 0x60 ADD PUSH1 0x40 MSTORE DUP1 PUSH1 0x40 DUP2 MSTORE PUSH1 0x20 ADD PUSH2 0xD16 PUSH1 0x40 SWAP2 CODECOPY SWAP1 POP PUSH1 0x0 PUSH1 0x3 DUP5 MLOAD PUSH1 0x2 PUSH2 0x327 SWAP2 SWAP1 PUSH2 0xBA8 JUMP JUMPDEST PUSH2 0x331 SWAP2 SWAP1 PUSH2 0xBC0 JUMP JUMPDEST PUSH2 0x33C SWAP1 PUSH1 0x4 PUSH2 0xBFB JUMP JUMPDEST SWAP1 POP PUSH1 0x0 PUSH2 0x34B DUP3 PUSH1 0x20 PUSH2 0xBA8 JUMP JUMPDEST PUSH8 0xFFFFFFFFFFFFFFFF DUP2 GT ISZERO PUSH2 0x363 JUMPI PUSH2 0x363 PUSH2 0xCE6 JUMP JUMPDEST PUSH1 0x40 MLOAD SWAP1 DUP1 DUP3 MSTORE DUP1 PUSH1 0x1F ADD PUSH1 0x1F NOT AND PUSH1 0x20 ADD DUP3 ADD PUSH1 0x40 MSTORE DUP1 ISZERO PUSH2 0x38D JUMPI PUSH1 0x20 DUP3 ADD DUP2 DUP1 CALLDATASIZE DUP4 CALLDATACOPY ADD SWAP1 POP JUMPDEST POP SWAP1 POP DUP2 DUP2 MSTORE PUSH1 0x1 DUP4 ADD DUP6 DUP7 MLOAD DUP2 ADD PUSH1 0x20 DUP5 ADD JUMPDEST DUP2 DUP4 LT ISZERO PUSH2 0x3F9 JUMPI PUSH1 0x3 DUP4 ADD SWAP3 POP DUP3 MLOAD PUSH1 0x3F DUP2 PUSH1 0x12 SHR AND DUP6 ADD MLOAD DUP3 MSTORE8 PUSH1 0x1 DUP3 ADD SWAP2 POP PUSH1 0x3F DUP2 PUSH1 0xC SHR AND DUP6 ADD MLOAD DUP3 MSTORE8 PUSH1 0x1 DUP3 ADD SWAP2 POP PUSH1 0x3F DUP2 PUSH1 0x6 SHR AND DUP6 ADD MLOAD DUP3 MSTORE8 PUSH1 0x1 DUP3 ADD SWAP2 POP PUSH1 0x3F DUP2 AND DUP6 ADD MLOAD DUP3 MSTORE8 POP PUSH1 0x1 ADD PUSH2 0x3A1 JUMP JUMPDEST PUSH1 0x3 DUP10 MLOAD MOD PUSH1 0x1 DUP2 EQ PUSH2 0x413 JUMPI PUSH1 0x2 DUP2 EQ PUSH2 0x45D JUMPI PUSH2 0x4A3 JUMP JUMPDEST PUSH32 0x3D3D000000000000000000000000000000000000000000000000000000000000 PUSH32 0xFFFFFFFFFFFFFFFFFFFFFFFFFFFFFFFFFFFFFFFFFFFFFFFFFFFFFFFFFFFFFFFE DUP4 ADD MSTORE PUSH2 0x4A3 JUMP JUMPDEST PUSH32 0x3D00000000000000000000000000000000000000000000000000000000000000 PUSH32 0xFFFFFFFFFFFFFFFFFFFFFFFFFFFFFFFFFFFFFFFFFFFFFFFFFFFFFFFFFFFFFFFF DUP4 ADD MSTORE JUMPDEST POP SWAP4 SWAP9 SWAP8 POP POP POP POP POP POP POP POP JUMP JUMPDEST PUSH1 0x60 PUSH2 0x4BB PUSH2 0x4E8 JUMP JUMPDEST PUSH2 0x4C3 PUSH2 0x6C2 JUMP JUMPDEST PUSH1 0x40 MLOAD PUSH1 0x20 ADD PUSH2 0x4D4 SWAP3 SWAP2 SWAP1 PUSH2 0x806 JUMP JUMPDEST PUSH1 0x40 MLOAD PUSH1 0x20 DUP2 DUP4 SUB SUB DUP2 MSTORE SWAP1 PUSH1 0x40 MSTORE SWAP1 POP SWAP1 JUMP JUMPDEST PUSH1 0x60 PUSH1 0x0 PUSH1 0x40 MLOAD DUP1 PUSH1 0x40 ADD PUSH1 0x40 MSTORE DUP1 PUSH1 0x1F DUP2 MSTORE PUSH1 0x20 ADD PUSH32 0x68747470733A2F2F692E696D6775722E636F6D2F594553484336322E706E6700 DUP2 MSTORE POP SWAP1 POP PUSH1 0x40 MLOAD PUSH1 0x20 ADD PUSH2 0x6AD SWAP1 PUSH32 0x3C7376672077696474683D2232383022206865696768743D2234303022207669 DUP2 MSTORE PUSH32 0x6577426F783D223020302032383020343030222066696C6C3D226E6F6E652220 PUSH1 0x20 DUP3 ADD MSTORE PUSH32 0x786D6C6E733D22687474703A2F2F7777772E77332E6F72672F323030302F7376 PUSH1 0x40 DUP3 ADD MSTORE PUSH32 0x67223E0000000000000000000000000000000000000000000000000000000000 PUSH1 0x60 DUP3 ADD MSTORE PUSH32 0x3C646566733E0000000000000000000000000000000000000000000000000000 PUSH1 0x63 DUP3 ADD MSTORE PUSH32 0x3C636C6970506174682069643D22636C6970305F325F34223E00000000000000 PUSH1 0x69 DUP3 ADD MSTORE PUSH32 0x3C726563742077696474683D2232383022206865696768743D22343030222066 PUSH1 0x82 DUP3 ADD MSTORE PUSH32 0x696C6C3D227768697465222F3E00000000000000000000000000000000000000 PUSH1 0xA2 DUP3 ADD MSTORE PUSH32 0x3C2F636C6970506174683E000000000000000000000000000000000000000000 PUSH1 0xAF DUP3 ADD MSTORE PUSH32 0x3C2F646566733E00000000000000000000000000000000000000000000000000 PUSH1 0xBA DUP3 ADD MSTORE PUSH1 0xC1 ADD SWAP1 JUMP JUMPDEST PUSH1 0x40 MLOAD PUSH1 0x20 DUP2 DUP4 SUB SUB DUP2 MSTORE SWAP1 PUSH1 0x40 MSTORE SWAP2 POP POP SWAP1 JUMP JUMPDEST PUSH1 0x60 PUSH1 0x40 MLOAD PUSH1 0x20 ADD PUSH2 0x4D4 SWAP1 PUSH2 0x9A6 JUMP JUMPDEST PUSH1 0x0 PUSH1 0x20 DUP3 DUP5 SUB SLT ISZERO PUSH2 0x6E5 JUMPI PUSH1 0x0 DUP1 REVERT JUMPDEST POP CALLDATALOAD SWAP2 SWAP1 POP JUMP JUMPDEST PUSH1 0x0 PUSH1 0x20 DUP3 DUP5 SUB SLT ISZERO PUSH2 0x6FE JUMPI PUSH1 0x0 DUP1 REVERT JUMPDEST DUP2 CALLDATALOAD PUSH8 0xFFFFFFFFFFFFFFFF DUP1 DUP3 GT ISZERO PUSH2 0x716 JUMPI PUSH1 0x0 DUP1 REVERT JUMPDEST DUP2 DUP5 ADD SWAP2 POP DUP5 PUSH1 0x1F DUP4 ADD SLT PUSH2 0x72A JUMPI PUSH1 0x0 DUP1 REVERT JUMPDEST DUP2 CALLDATALOAD DUP2 DUP2 GT ISZERO PUSH2 0x73C JUMPI PUSH2 0x73C PUSH2 0xCE6 JUMP JUMPDEST PUSH1 0x40 MLOAD PUSH1 0x1F DUP3 ADD PUSH32 0xFFFFFFFFFFFFFFFFFFFFFFFFFFFFFFFFFFFFFFFFFFFFFFFFFFFFFFFFFFFFFFE0 SWAP1 DUP2 AND PUSH1 0x3F ADD AND DUP2 ADD SWAP1 DUP4 DUP3 GT DUP2 DUP4 LT OR ISZERO PUSH2 0x782 JUMPI PUSH2 0x782 PUSH2 0xCE6 JUMP JUMPDEST DUP2 PUSH1 0x40 MSTORE DUP3 DUP2 MSTORE DUP8 PUSH1 0x20 DUP5 DUP8 ADD ADD GT ISZERO PUSH2 0x79B JUMPI PUSH1 0x0 DUP1 REVERT JUMPDEST DUP3 PUSH1 0x20 DUP7 ADD PUSH1 0x20 DUP4 ADD CALLDATACOPY PUSH1 0x0 SWAP3 DUP2 ADD PUSH1 0x20 ADD SWAP3 SWAP1 SWAP3 MSTORE POP SWAP6 SWAP5 POP POP POP POP POP JUMP JUMPDEST PUSH1 0x0 DUP3 MLOAD PUSH2 0x7CD DUP2 DUP5 PUSH1 0x20 DUP8 ADD PUSH2 0xC38 JUMP JUMPDEST SWAP2 SWAP1 SWAP2 ADD SWAP3 SWAP2 POP POP JUMP JUMPDEST PUSH1 0x0 DUP4 MLOAD PUSH2 0x7E9 DUP2 DUP5 PUSH1 0x20 DUP9 ADD PUSH2 0xC38 JUMP JUMPDEST DUP4 MLOAD SWAP1 DUP4 ADD SWAP1 PUSH2 0x7FD DUP2 DUP4 PUSH1 0x20 DUP9 ADD PUSH2 0xC38 JUMP JUMPDEST ADD SWAP5 SWAP4 POP POP POP POP JUMP JUMPDEST PUSH1 0x0 DUP4 MLOAD PUSH2 0x818 DUP2 DUP5 PUSH1 0x20 DUP9 ADD PUSH2 0xC38 JUMP JUMPDEST DUP4 MLOAD SWAP1 DUP4 ADD SWAP1 PUSH2 0x82C DUP2 DUP4 PUSH1 0x20 DUP9 ADD PUSH2 0xC38 JUMP JUMPDEST PUSH32 0x3C2F7376673E0000000000000000000000000000000000000000000000000000 SWAP2 ADD SWAP1 DUP2 MSTORE PUSH1 0x6 ADD SWAP5 SWAP4 POP POP POP POP JUMP JUMPDEST PUSH32 0x646174613A6170706C69636174696F6E2F6A736F6E3B6261736536342C000000 DUP2 MSTORE PUSH1 0x0 DUP3 MLOAD PUSH2 0x895 DUP2 PUSH1 0x1D DUP6 ADD PUSH1 0x20 DUP8 ADD PUSH2 0xC38 JUMP JUMPDEST SWAP2 SWAP1 SWAP2 ADD PUSH1 0x1D ADD SWAP3 SWAP2 POP POP JUMP JUMPDEST PUSH32 0x7B226E616D65223A22476F6F644D6F726E696E67222C00000000000000000000 DUP2 MSTORE PUSH32 0x20226465736372697074696F6E223A2022412067656E65726174697665206172 PUSH1 0x16 DUP3 ADD MSTORE PUSH32 0x7420746F2073686F7720476F6F64204D6F726E696E6728474D29222C00000000 PUSH1 0x36 DUP3 ADD MSTORE PUSH32 0x2261747472696275746573223A22222C00000000000000000000000000000000 PUSH1 0x52 DUP3 ADD MSTORE PUSH32 0x22696D616765223A220000000000000000000000000000000000000000000000 PUSH1 0x62 DUP3 ADD MSTORE PUSH1 0x0 DUP3 MLOAD PUSH2 0x972 DUP2 PUSH1 0x6B DUP6 ADD PUSH1 0x20 DUP8 ADD PUSH2 0xC38 JUMP JUMPDEST PUSH32 0x227D000000000000000000000000000000000000000000000000000000000000 PUSH1 0x6B SWAP4 SWAP1 SWAP2 ADD SWAP3 DUP4 ADD MSTORE POP PUSH1 0x6D ADD SWAP2 SWAP1 POP JUMP JUMPDEST PUSH32 0x3C6720636C69702D706174683D2275726C2823636C6970305F325F3429223E00 DUP2 MSTORE PUSH32 0x3C726563742077696474683D2232383022206865696768743D22343030222066 PUSH1 0x1F DUP3 ADD MSTORE PUSH32 0x696C6C3D2223464632463246222F3E0000000000000000000000000000000000 PUSH1 0x3F DUP3 ADD MSTORE PUSH1 0x0 PUSH2 0xA6D PUSH1 0x4E DUP4 ADD PUSH32 0x3C726563742077696474683D2232383022206865696768743D22343030222066 DUP2 MSTORE PUSH32 0x696C6C3D227768697465222F3E00000000000000000000000000000000000000 PUSH1 0x20 DUP3 ADD MSTORE PUSH1 0x2D ADD SWAP1 JUMP JUMPDEST PUSH32 0x3C636972636C652063783D22313430222063793D223131312220723D22353022 DUP2 MSTORE PUSH32 0x2066696C6C3D2223444531303130222F3E000000000000000000000000000000 PUSH1 0x20 DUP3 ADD MSTORE PUSH32 0x3C656C6C697073652063783D22313332222063793D223339392E35222072783D PUSH1 0x31 DUP3 ADD MSTORE PUSH32 0x22323431222072793D223135322E35222066696C6C3D2223343243323736222F PUSH1 0x51 DUP3 ADD MSTORE PUSH32 0x3E00000000000000000000000000000000000000000000000000000000000000 PUSH1 0x71 DUP3 ADD MSTORE PUSH32 0x3C2F673E00000000000000000000000000000000000000000000000000000000 PUSH1 0x72 DUP3 ADD MSTORE PUSH1 0x76 ADD SWAP3 SWAP2 POP POP JUMP JUMPDEST PUSH1 0x20 DUP2 MSTORE PUSH1 0x0 DUP3 MLOAD DUP1 PUSH1 0x20 DUP5 ADD MSTORE PUSH2 0xB76 DUP2 PUSH1 0x40 DUP6 ADD PUSH1 0x20 DUP8 ADD PUSH2 0xC38 JUMP JUMPDEST PUSH1 0x1F ADD PUSH32 0xFFFFFFFFFFFFFFFFFFFFFFFFFFFFFFFFFFFFFFFFFFFFFFFFFFFFFFFFFFFFFFE0 AND SWAP2 SWAP1 SWAP2 ADD PUSH1 0x40 ADD SWAP3 SWAP2 POP POP JUMP JUMPDEST PUSH1 0x0 DUP3 NOT DUP3 GT ISZERO PUSH2 0xBBB JUMPI PUSH2 0xBBB PUSH2 0xC88 JUMP JUMPDEST POP ADD SWAP1 JUMP JUMPDEST PUSH1 0x0 DUP3 PUSH2 0xBF6 JUMPI PUSH32 0x4E487B7100000000000000000000000000000000000000000000000000000000 PUSH1 0x0 MSTORE PUSH1 0x12 PUSH1 0x4 MSTORE PUSH1 0x24 PUSH1 0x0 REVERT JUMPDEST POP DIV SWAP1 JUMP JUMPDEST PUSH1 0x0 DUP2 PUSH32 0xFFFFFFFFFFFFFFFFFFFFFFFFFFFFFFFFFFFFFFFFFFFFFFFFFFFFFFFFFFFFFFFF DIV DUP4 GT DUP3 ISZERO ISZERO AND ISZERO PUSH2 0xC33 JUMPI PUSH2 0xC33 PUSH2 0xC88 JUMP JUMPDEST POP MUL SWAP1 JUMP JUMPDEST PUSH1 0x0 JUMPDEST DUP4 DUP2 LT ISZERO PUSH2 0xC53 JUMPI DUP2 DUP2 ADD MLOAD DUP4 DUP3 ADD MSTORE PUSH1 0x20 ADD PUSH2 0xC3B JUMP JUMPDEST DUP4 DUP2 GT ISZERO PUSH2 0xC62 JUMPI PUSH1 0x0 DUP5 DUP5 ADD MSTORE JUMPDEST POP POP POP POP JUMP JUMPDEST PUSH1 0x0 PUSH1 0xFF DUP3 AND PUSH1 0xFF DUP2 EQ ISZERO PUSH2 0xC7F JUMPI PUSH2 0xC7F PUSH2 0xC88 JUMP JUMPDEST PUSH1 0x1 ADD SWAP3 SWAP2 POP POP JUMP JUMPDEST PUSH32 0x4E487B7100000000000000000000000000000000000000000000000000000000 PUSH1 0x0 MSTORE PUSH1 0x11 PUSH1 0x4 MSTORE PUSH1 0x24 PUSH1 0x0 REVERT JUMPDEST PUSH32 0x4E487B7100000000000000000000000000000000000000000000000000000000 PUSH1 0x0 MSTORE PUSH1 0x32 PUSH1 0x4 MSTORE PUSH1 0x24 PUSH1 0x0 REVERT JUMPDEST PUSH32 0x4E487B7100000000000000000000000000000000000000000000000000000000 PUSH1 0x0 MSTORE PUSH1 0x41 PUSH1 0x4 MSTORE PUSH1 0x24 PUSH1 0x0 REVERT INVALID COINBASE TIMESTAMP NUMBER DIFFICULTY GASLIMIT CHAINID SELFBALANCE BASEFEE 0x49 0x4A 0x4B 0x4C 0x4D 0x4E 0x4F POP MLOAD MSTORE MSTORE8 SLOAD SSTORE JUMP JUMPI PC MSIZE GAS PUSH2 0x6263 PUSH5 0x6566676869 PUSH11 0x6B6C6D6E6F707172737475 PUSH23 0x7778797A303132333435363738392B2FA2646970667358 0x22 SLT KECCAK256 0xD2 GAS ISZERO 0xA6 LOG3 0xC8 CALLDATASIZE COINBASE SHR 0xA7 0x4D PUSH6 0x213C4EB92A8 0xD0 SWAP16 MULMOD 0x2C 0x29 0xEF MULMOD ADDMOD 0x25 MULMOD CALLCODE KECCAK256 LOG4 0xDB PUSH5 0x736F6C6343 STOP ADDMOD SMOD STOP CALLER "
        },
        "gasEstimates": {
          "creation": {
            "codeDepositCost": "693400",
            "executionCost": "728",
            "totalCost": "694128"
          },
          "external": {
            "bytes32ToString(bytes32)": "infinite",
            "formatTokenURI(string)": "infinite",
            "svgToImageURI()": "infinite"
          },
          "internal": {
            "generateGraphics()": "infinite",
            "generateSVG()": "infinite",
            "generateSVGDefs()": "infinite"
          }
        },
        "methodIdentifiers": {
          "bytes32ToString(bytes32)": "9201de55",
          "formatTokenURI(string)": "71aee193",
          "svgToImageURI()": "946aa635"
        }
      },
      "storageLayout": {
        "storage": [],
        "types": null
      },
      "userdoc": {
        "kind": "user",
        "methods": {},
        "version": 1
      }
    }
  }
}